{
  "contractName": "DonateForEarn",
  "abi": [
    {
      "inputs": [
        {
          "name": "plat",
          "type": "address"
        }
      ],
      "payable": false,
      "stateMutability": "nonpayable",
      "type": "constructor"
    },
    {
      "anonymous": false,
      "inputs": [
        {
          "indexed": false,
          "name": "newValue",
          "type": "uint256"
        }
      ],
      "name": "MinDonate",
      "type": "event"
    },
    {
      "anonymous": false,
      "inputs": [
        {
          "indexed": false,
          "name": "from",
          "type": "address"
        },
        {
          "indexed": false,
          "name": "value",
          "type": "uint256"
        }
      ],
      "name": "Donation",
      "type": "event"
    },
    {
      "anonymous": false,
      "inputs": [
        {
          "indexed": false,
          "name": "to",
          "type": "address"
        },
        {
          "indexed": false,
          "name": "reward",
          "type": "uint256"
        }
      ],
      "name": "Reward",
      "type": "event"
    },
    {
      "constant": true,
      "inputs": [],
      "name": "ownerAddress",
      "outputs": [
        {
          "name": "",
          "type": "address"
        }
      ],
      "payable": false,
      "stateMutability": "view",
      "type": "function"
    },
    {
      "constant": true,
      "inputs": [],
      "name": "platformAddress",
      "outputs": [
        {
          "name": "",
          "type": "address"
        }
      ],
      "payable": false,
      "stateMutability": "view",
      "type": "function"
    },
    {
      "constant": false,
      "inputs": [
        {
          "name": "donation",
          "type": "uint256"
        }
      ],
      "name": "setMinDonation",
      "outputs": [],
      "payable": false,
      "stateMutability": "nonpayable",
      "type": "function"
    },
    {
      "constant": false,
      "inputs": [],
      "name": "donate",
      "outputs": [],
      "payable": true,
      "stateMutability": "payable",
      "type": "function"
    }
  ],
  "bytecode": "0x606060405260006040518059106100135750595b908082528060200260200182016040525060039080519060200190610039929190610161565b5060006040518059106100495750595b90808252806020026020018201604052506004908051906020019061006f9291906101eb565b50341561007b57600080fd5b60405160208061093d833981016040528080519060200190919050506101c26000819055507f3575d85ec2efe2448b0656fc5e9115699018364bec709059ddfadd74b2fff0776000546040518082815260200191505060405180910390a133600160006101000a81548173ffffffffffffffffffffffffffffffffffffffff021916908373ffffffffffffffffffffffffffffffffffffffff16021790555080600260006101000a81548173ffffffffffffffffffffffffffffffffffffffff021916908373ffffffffffffffffffffffffffffffffffffffff160217905550506102a0565b8280548282559060005260206000209081019282156101da579160200282015b828111156101d95782518260006101000a81548173ffffffffffffffffffffffffffffffffffffffff021916908373ffffffffffffffffffffffffffffffffffffffff16021790555091602001919060010190610181565b5b5090506101e79190610238565b5090565b828054828255906000526020600020908101928215610227579160200282015b8281111561022657825182559160200191906001019061020b565b5b509050610234919061027b565b5090565b61027891905b8082111561027457600081816101000a81549073ffffffffffffffffffffffffffffffffffffffff02191690555060010161023e565b5090565b90565b61029d91905b80821115610299576000816000905550600101610281565b5090565b90565b61068e806102af6000396000f300606060405260043610610062576000357c0100000000000000000000000000000000000000000000000000000000900463ffffffff16806383a6595f146100675780638f84aa091461008a578063dbe55e56146100df578063ed88c68e14610134575b600080fd5b341561007257600080fd5b610088600480803590602001909190505061013e565b005b341561009557600080fd5b61009d6101e6565b604051808273ffffffffffffffffffffffffffffffffffffffff1673ffffffffffffffffffffffffffffffffffffffff16815260200191505060405180910390f35b34156100ea57600080fd5b6100f2610210565b604051808273ffffffffffffffffffffffffffffffffffffffff1673ffffffffffffffffffffffffffffffffffffffff16815260200191505060405180910390f35b61013c61023a565b005b600160009054906101000a900473ffffffffffffffffffffffffffffffffffffffff1673ffffffffffffffffffffffffffffffffffffffff163373ffffffffffffffffffffffffffffffffffffffff1614801561019d57506105a08110155b156101e357806000819055507f3575d85ec2efe2448b0656fc5e9115699018364bec709059ddfadd74b2fff0776000546040518082815260200191505060405180910390a15b50565b6000600160009054906101000a900473ffffffffffffffffffffffffffffffffffffffff16905090565b6000600260009054906101000a900473ffffffffffffffffffffffffffffffffffffffff16905090565b60008060008060003494507f5d8bc849764969eb1bcc6d0a2f55999d0167c1ccec240a4f39cf664ca9c4148e3386604051808373ffffffffffffffffffffffffffffffffffffffff1673ffffffffffffffffffffffffffffffffffffffff1681526020018281526020019250505060405180910390a1600054851115156102c057600080fd5b600160009054906101000a900473ffffffffffffffffffffffffffffffffffffffff1673ffffffffffffffffffffffffffffffffffffffff163373ffffffffffffffffffffffffffffffffffffffff161415151561031d57600080fd5b60028581151561032957fe5b049450600160009054906101000a900473ffffffffffffffffffffffffffffffffffffffff1673ffffffffffffffffffffffffffffffffffffffff166108fc869081150290604051600060405180830381858888f19350505050151561038e57600080fd5b600060038054905011156104ed5760016003805490500393505b600084101580156103bd575060038054905084105b156104ec576003848154811015156103d157fe5b906000526020600020900160009054906101000a900473ffffffffffffffffffffffffffffffffffffffff16925060048481548110151561040e57fe5b906000526020600020900154915081850182860281151561042b57fe5b0490508273ffffffffffffffffffffffffffffffffffffffff166108fc829081150290604051600060405180830381858888f19350505050151561046e57600080fd5b7f619caafabdd75649b302ba8419e48cccf64f37f1983ac4727cfb38b57703ffc98382604051808373ffffffffffffffffffffffffffffffffffffffff1673ffffffffffffffffffffffffffffffffffffffff1681526020018281526020019250505060405180910390a180850394508380600190039450506103a8565b5b600260009054906101000a900473ffffffffffffffffffffffffffffffffffffffff1673ffffffffffffffffffffffffffffffffffffffff166108fc869081150290604051600060405180830381858888f19350505050151561054f57600080fd5b6003805480600101828161056391906105e5565b9160005260206000209001600033909190916101000a81548173ffffffffffffffffffffffffffffffffffffffff021916908373ffffffffffffffffffffffffffffffffffffffff16021790555050600480548060010182816105c69190610611565b9160005260206000209001600060028802909190915055505050505050565b81548183558181151161060c5781836000526020600020918201910161060b919061063d565b5b505050565b81548183558181151161063857818360005260206000209182019101610637919061063d565b5b505050565b61065f91905b8082111561065b576000816000905550600101610643565b5090565b905600a165627a7a723058208be6e207ab8baf06e034e899f7d5711540a451207b9ea8a120fd346bd3cc6c030029",
  "source": "pragma solidity ^0.4.18;\n\ncontract DonateForEarn {\n    \n\n    uint minDonation; // minutes\n    address owner;\n    address platform;\n    address[] donaters = new address[](0);\n    uint[] donchart = new uint[](0);\n\n    event MinDonate(uint newValue);\n    event Donation(address from, uint value);\n    event Reward(address to, uint reward);\n\n    function DonateForEarn(address plat) public {\n        minDonation = 450;\n        MinDonate(minDonation);\n        owner = msg.sender;\n        platform = plat;\n    }\n\n    \n\n    function ownerAddress() public view returns (address) {\n        return owner;\n    }\n    function platformAddress() public view returns (address) {\n        return platform;\n    }\n    function setMinDonation(uint donation) public {\n        if (msg.sender == owner && donation >= 1440) {\n            minDonation = donation;\n            MinDonate(minDonation);\n        }\n    }\n\n    function donate() public payable {\n        uint amount = msg.value;\n        Donation(msg.sender, amount);\n        require(amount > minDonation);\n        require(msg.sender != owner);\n        \n        \n        // totalDonation += amount;\n        \n        amount /= 2;\n        \n        owner.transfer(amount);\n        \n        if(donaters.length > 0){\n            for(uint i = donaters.length - 1; i >= 0 && i < donaters.length; i--){\n                address receiver = donaters[i];\n                uint historyDon = donchart[i];\n                uint reward = amount * historyDon /(amount + historyDon);\n                receiver.transfer(reward);\n                Reward(receiver, reward);\n                amount = amount - reward;\n            }\n        }\n        platform.transfer(amount);\n        donaters.push(msg.sender);\n        donchart.push(amount * 2);\n    }\n}",
  "sourcePath": "/Users/cal/Desktop/SmartContractDemo/ass4/contracts/DonateForEarn.sol",
  "compiler": {
    "name": "solc",
    "version": "0.4.19+commit.c4cbbb05.Emscripten.clang"
  },
  "schemaVersion": "1.0.1",
  "updatedAt": "2018-02-07T17:33:06.258Z"
}